:020000040000FA
:100000000C9481010C94B2010C94B2010C94B201D5
:100010000C94B2010C94B2010C94B2010C94B20194
:100020000C94B2010C94B2010C94B2010C94B20184
:100030000C94B2010C94B2010C94B2010C94B20174
:100040000C94B2010C94B2010C94B2010C94B20164
:100050000C94B2010C94B2010C94B2010C94E4150E
:100060000C94B2010C94B8160C948E160C94B20138
:100070000C94B2010C94B2010C94B2010C94B20134
:100080000C94B2010C94B2010C94B2010C94B20124
:100090000C94B2010C94B2010C94B2010C94EE16C3
:1000A0000C94B2010C94B2010C94B2010C94B20104
:1000B0000C94B2010C94B2010C94B2010C94B201F4
:1000C0000C94B2010C94B2010C94B2010C94B201E4
:1000D0000C94B2010C94B2010C9458160C942E1688
:1000E0000C94B2010C9471150C942E080C94740CA1
:1000F0000C94E1020C94BB0C0C941C020C94200296
:100100000C94C90A0C9408040C9432020C94530900
:100110000C94B4010C9432090C94E60D0C94E60195
:100120000C942E090C9412020C9424020C9446098F
:100130000C94D9080C9429180C9479030C940C0293
:100140000C94E90C0C94EE070C942A020C946B03AB
:100150000C9409020C94780C0C94E9020C94132072
:100160000C94C7080C94DE070C9472090C942503B8
:100170000C94310F0C9416020C94FD010C94160390
:100180000C9401020C945C090C94FE140C94910BD9
:100190000C94300A0C94180B0C9401080C94920CDB
:1001A0000C9424120C94DF070C94ED0D0C94B50103
:1001B0000C9438020C945B090C942E020C943C02B3
:1001C0000C9448090C94BB030C94900F0C94B40B42
:1001D0000C94E8020C94EF080C9436090C94A30AD2
:1001E0000C94EB010C94550B0C944A0C0C942B0CB6
:1001F0000C9405020C94500D0000210024002700EF
:100200002A002D0030003300010100000401070125
:100210000A0100002200250028002B002E003100DA
:10022000340002010000050108010B010505050568
:10023000070508080808020202020A0A080804045E
:10024000040401010101010101010303030303038C
:100250000303040707070C0C0C0C0C0C0C0C02021B
:10026000020206060606060606060B0B0B0B0B0B18
:100270000B0B0102102020080810204010204080A5
:10028000020102010804020101020408102040805A
:1002900080402010080402018004020180402010E8
:1002A0000804020108040201010204081020408031
:1002B000010204081020408000000A0B02090C0D06
:1002C0000E08070304010000000000000000000009
:1002D000000000000000000000000000000000001E
:1002E00000000000121110000000000000000000DB
:1002F00000000000000000000000000000002918BD
:10030000132011241FBECFEFD1E2DEBFCDBF00E02E
:100310000CBF12E0A0E0B2E0EEEDF6E400E00BBFAF
:1003200002C007900D92AA3DB107D9F726E0AAEDC9
:10033000B2E001C01D92AD31B207E1F711E0C0E8B3
:10034000D1E000E006C021970109802FFE010E9444
:10035000F420CF37D10780E00807A9F70E947C1965
:100360000C945D230C94000008950895282F30E02C
:10037000F901E854FD4F9491F901EE58FD4F449175
:10038000245D3D4FF9012491222309F435C09923BE
:1003900011F191509231F8F4E92FF0E08827EC52F6
:1003A000FE4F8F4F0C94F42005020902E601FD0177
:1003B0000102EB010C02120216021C0220022402AE
:1003C0002A022E02EB01320238023C0280918000A8
:1003D0008F7780938000E22FF0E0EE0FFF1FEE5E3C
:1003E000FD4FA591B4918FB7F894EC91611148C07D
:1003F00040954E234C938FBF0895809180008F7D50
:10040000E8CF80918000877FE4CF84B58F7784BD6B
:10041000E2CF84B58F7DFBCF8091B0008F77809342
:10042000B000D9CF8091B0008F7DF9CF809190003E
:100430008F7780939000CFCF809190008F7DF9CF00
:1004400080919000877FF5CF8091A0008F77809377
:10045000A000C1CF8091A0008F7DF9CF8091A00036
:10046000877FF5CF809120018F7780932001B3CFD4
:10047000809120018F7DF9CF80912001877FF5CF7A
:100480004E2BB8CFCF93DF9390E0FC01EE58FD4F99
:100490002491845D9D4FFC0184918823C9F090E0F4
:1004A000880F991FFC01E850FE4FA591B491FC0103
:1004B000EE5EFD4FC591D49161110DC09FB7F894C8
:1004C0008C91209582238C938881282328839FBF39
:1004D000DF91CF910895623051F49FB7F8943C9129
:1004E000822F809583238C93E8812E2BEFCF8FB7BB
:1004F000F894EC912E2B2C938FBFEACF3FB7F89452
:100500008091930390919403A0919503B0919603E9
:1005100026B5A89B05C02F3F19F00196A11DB11D5E
:100520003FBFBA2FA92F982F8827BC01CD01620F9A
:10053000711D811D911D42E0660F771F881F991F55
:100540004A95D1F708958F929F92AF92BF92CF9222
:10055000DF92EF92FF924B015C010E947E026B01E1
:100560007C010E947E026C197D098E099F09683EFC
:10057000734081059105A8F321E0821A9108A10832
:10058000B10888EEC80E83E0D81EE11CF11C81146E
:100590009104A104B10429F7FF90EF90DF90CF9070
:1005A000BF90AF909F908F9008952FB7F89460916F
:1005B0008F037091900380919103909192032FBFCC
:1005C000089580919D0390919E03891B990B089536
:1005D0000895AF92BF92CF92DF92EF92FF920F9366
:1005E0001F93CF93DF936C017B018B01040F151FC9
:1005F000EB015E01AE18BF08C017D10759F0699131
:10060000D601ED91FC910190F081E02DC601199584
:10061000892B79F7C501DF91CF911F910F91FF9041
:10062000EF90DF90CF90BF90AF900895FC01538D75
:10063000448D252F30E0842F90E0821B930B5417BC
:1006400010F0CF96089501970895FC01918D828D49
:10065000981761F0A28DAE0FBF2FB11D5D968C91E2
:10066000928D9F5F9F73928F90E008958FEF9FEF21
:1006700008950F931F930E94D502609317047093FF
:1006800018048093190490931A048FE094E00E9458
:10069000250397FF1DC00E94D502009117041091F9
:1006A00018042091190430911A04601B710B820BFD
:1006B000930B0091130410911404209115043091B0
:1006C00016046017710782079307F8F28FEF9FEF08
:1006D0001F910F910895FC01918D828D981731F033
:1006E000828DE80FF11D858D90E008958FEF9FEFCB
:1006F0000895FC01918D228D892F90E0805C9F4FA1
:10070000821B91098F73992708958FE094E00E94CE
:10071000790321E0892B09F420E0822F08958CEAE7
:1007200094E00E94790321E0892B09F420E0822FD4
:100730000895FC01A48DA80FB92FB11DA35ABF4F76
:100740002C91848D90E001968F739927848FA689D0
:10075000B7892C93A089B1898C91837080648C9324
:10076000938D848D981306C00288F389E02D8081D3
:100770008F7D80830895EF92FF920F931F93CF9305
:10078000DF93EC0181E0888F9B8D8C8D98131AC0CC
:10079000E889F989808185FF15C09FB7F894EE89B3
:1007A000FF896083E889F989808183708064808310
:1007B0009FBF81E090E0DF91CF911F910F91FF905B
:1007C000EF900895F62E0B8D10E00F5F1F4F0F7303
:1007D0001127E02E8C8D8E110CC00FB607FCFACFBE
:1007E000E889F989808185FFF5CFCE010E949903C0
:1007F000F1CFEB8DEC0FFD2FF11DE35AFF4FF0828F
:100800009FB7F8940B8FEA89FB8980818062CFCFF4
:10081000CF93DF93EC01888D8823B9F0AA89BB8937
:10082000E889F9898C9185FD03C0808186FD0DC022
:100830000FB607FCF7CF8C9185FFF2CF808185FF43
:10084000EDCFCE010E949903E9CFDF91CF910895BA
:1008500080E090E0892B29F00E948F0381110E9493
:10086000000080E090E0892B49F080E090E0892B47
:1008700029F00E94000081110E94000080E090E0B9
:10088000892B49F080E090E0892B29F00E9400003C
:1008900081110E94000080E090E0892B29F00E94E5
:1008A000850381110C940000089560932C037093CC
:1008B0002D0380932E0390932F03645D7E4F8F4F03
:1008C0009F4F609328037093290380932A0390938A
:1008D0002B0382E090E090932703809326030E94ED
:1008E000D502609322037093230380932403909393
:1008F00025030895CF92DF92EF92FF920F931F93FB
:100900000E94D5028B019C01C0902203D09023034A
:10091000E0902403F090250360912C0370912D0347
:1009200080912E0390912F030C191D092E093F0968
:10093000083E134021053105E0F0DC01CB010196B2
:10094000A11DB11D80932C0390932D03A0932E0322
:10095000B0932F03B701A60148515C4F6F4F7F4FF3
:100960004093220350932303609324037093250341
:10097000C7CF1F910F91FF90EF90DF90CF90089518
:100980004F925F926F927F928F929F92AF92BF929F
:10099000CF92DF92EF92FF920F931F93CF93DF934B
:1009A0004B015C0180911E0390911F03A0912003D5
:1009B000B091210388159905AA05BB0509F4C6C0A5
:1009C0008CE3C82ED12CE12CF12CC501A701960196
:1009D0000E94AF2060933003CA01B901A7019601BC
:1009E0000E94AF2060933103C501B40120E13EE0D5
:1009F00040E050E00E94AF20CA01B90128E130E098
:100A000040E050E00E94AF2060933203C501B40182
:100A100020E831E541E050E00E94AF2069017A0111
:100A2000CA01B9016C5F7F4F8F4F9F4F27E030E0C5
:100A300040E050E00E94AF206F5F60933303412C91
:100A4000512C320140E004E610E0C0E9D1E0242F4F
:100A500030E02E54384FF901E370FF273097F9F456
:100A6000C901B8010E94E020892B31F4C901BE01FF
:100A70000E94E020892B99F48EE691E0A0E0B0E09E
:100A8000480E591E6A1E7B1ED301C201AA27BB272E
:100A9000C816D906EA06FB0638F04F5FD8CF8DE6B8
:100AA00091E0A0E0B0E0ECCF40933603C90164E6EA
:100AB00070E00E94E020EC01C90160E971E00E9451
:100AC000E020309721F42097D9F40097C9F04DE643
:100AD00051E060E070E0441A550A660A770AC418CB
:100AE000D508E608F708A0E3B2E020E0213069F479
:100AF0003097E9F5209711F40097C9F54DE106C04C
:100B00004EE651E060E070E0E6CF4C9150E070E0DE
:100B100060E031E0320FC416D506E606F70640F075
:100B2000C41AD50AE60AF70A1196232F3C30F1F6CB
:100B30002F5F20933503C394C092340380921E0329
:100B400090921F03A0922003B0922103DF91CF91D6
:100B50001F910F91FF90EF90DF90CF90BF90AF90DB
:100B60009F908F907F906F905F904F9008954CE191
:100B7000CDCF2091FB02260F3327331F21323105C1
:100B8000ECF420910904FC0190E080E0243069F04D
:100B900082E00895A091FB022191AC0145525D4F86
:100BA000A40FB52FB11D2C930196861798F3809151
:100BB000FB02680F6093FB0280E0089581E00895D6
:100BC0001092090481E08093E8031092E30361E04E
:100BD00084E10E94B60161E085E10E94B601E9EB83
:100BE000F0E080818E7F808380818D7F808388E4A8
:100BF0008093B80085E48093BC000895CF93DF9381
:100C000091E09093DA028823B9F0C091B800D091B6
:100C1000BA008091BC008A7B8093BC0060E084E1D4
:100C20000E94B60160E085E10E94B6010E94E005E5
:100C3000D093BA00C093B800DF91CF910895CF92BE
:100C4000DF92EF92FF920F931F93CF93DF93D82FF2
:100C5000C62F613208F098C00E947E026B017C01B1
:100C60008091090481116BC081E080930904809315
:100C7000E8039FEF9093E7031092E6039C0F909395
:100C8000E5038093E4038091E403DD0FD82BD09338
:100C9000E4038091E303813009F078C01092E3030C
:100CA0000E947E026B017C018091E4038093BB0073
:100CB00080910B0490910C04A0910D04B0910E044E
:100CC000892B8A2B8B2BA1F00E947E0200910B04B2
:100CD00010910C0420910D0430910E046C197D09C3
:100CE0008E099F09061717072807390708F448C017
:100CF0008091BC0083FDD8CF85EC8093BC000E941E
:100D00007E026B017C0180910904813009F440C0AE
:100D10008091E6038C1710F4C091E603E3ECF3E056
:100D2000A9EEB3E080E08C1355C08C2FDF91CF91FA
:100D30001F910F91FF90EF90DF90CF9008958091D9
:100D40000B0490910C04A0910D04B0910E04892B1A
:100D50008A2B8B2B09F484CF0E947E0200910B0416
:100D600010910C0420910D0430910E046C197D0932
:100D70008E099F09061717072807390708F070CF53
:100D800080910A040E94FE05C0E0CFCF85EEB5CF6A
:100D900080910B0490910C04A0910D04B0910E046D
:100DA000892B8A2B8B2B09F4AECF0E947E020091F7
:100DB0000B0410910C0420910D0430910E046C1959
:100DC0007D098E099F09061717072807390708F0BC
:100DD0009ACFD6CF91919D938F5FA5CF8F929F92FF
:100DE000AF92BF92CF92DF92EF92FF920F931F9339
:100DF000CF93DF93D091C203D13208F0D7C0182F20
:100E0000C091C1030E947E026B017C0180910904A4
:100E100081116BC082E0809309041093E8038FEF87
:100E20008093E7031092E603D093E503A1EAB3E0D1
:100E3000E3ECF3E080E0D81391C01092E4038091DA
:100E4000E403CC0FC82BC093E4038091E30381300B
:100E500009F088C01092E3030E947E026B017C01BE
:100E60008091E4038093BB0080910B0490910C046B
:100E7000A0910D04B0910E04892B8A2B8B2BA1F02D
:100E80000E947E0200910B0410910C0420910D042D
:100E900030910E046C197D098E099F0906171707FA
:100EA0002807390708F442C08091BC0083FDD8CFE1
:100EB00085EC8093BC000E947E026B017C018091D6
:100EC0000904823009F450C08091E7038F3F09F490
:100ED0006FC08091E703803209F46CC08091E70312
:100EE000803309F469C084E026C080910B0490919E
:100EF0000C04A0910D04B0910E04892B8A2B8B2B2E
:100F000009F484CF0E947E0280900B0490900C0420
:100F1000A0900D04B0900E046C197D098E099F09F4
:100F200086169706A806B90608F070CF80910A04C5
:100F30000E94FE0585E01092A0031092C203109259
:100F40009F03DF91CF911F910F91FF90EF90DF9062
:100F5000CF90BF90AF909F908F9008959D91919367
:100F60008F5F69CF85EEA5CF80910B0490910C0423
:100F7000A0910D04B0910E04892B8A2B8B2B09F4C0
:100F80009ECF0E947E0200910B0410910C042091D0
:100F90000D0430910E046C197D098E099F09061706
:100FA00017072807390708F08ACFC0CF81E0C3CFE1
:100FB00080E0C1CF82E0BFCF83E0BDCF0895E09154
:100FC0009E0380919D03E81730F4F0E0E751FC4F59
:100FD000808190E008958FEF9FEF089590919E0398
:100FE00080919D032FEF3FEF981748F4E92FF0E031
:100FF000E751FC4F208130E09F5F90939E03C90131
:101000000895CF92DF92EF92FF920F931F93CF93A9
:10101000DF937C01CB018A0120919F03222389F079
:10102000EB016B01C40ED51ECC15DD0569F069918D
:10103000D701ED91FC910190F081E02DC701199548
:10104000F3CF642F0E94B905C801DF91CF911F91A2
:101050000F91FF90EF90DF90CF900895CF93DF93A3
:101060001F92CDB7DEB7698320919F032223F9F049
:101070002091C203203258F021E030E0FC0133839C
:10108000228390E080E00F90DF91CF9108958091CE
:10109000A003E82FF0E0EF55FC4F998190838F5F1C
:1010A0008093A0038093C20381E090E0ECCF61E0E5
:1010B000CE0101960E94B905F7CF61E080E00C9463
:1010C000B60160E080E00C94B60108958EBD00008A
:1010D0000DB407FEFDCF8EB508958CBD9DBD08955E
:1010E000DF92EF92FF920F931F93CF93DF93D82F4E
:1010F000D92EC62F7A0189018091490590914A0520
:101100000E946D080E9461088D2D0E9466088D2F37
:101110000E9466088C2F0E946608E701E00EF11E0F
:10112000CE15DF0521F089910E946608F9CF0E9453
:101130005D08C801DF91CF911F910F91FF90EF9053
:10114000DF9008951F93CF93DF93C82F162FD42FCE
:101150008091490590914A050E946D080E9461089E
:1011600080E00E946608812F0E9466088C2F82957D
:10117000880F807E845F0E9466088D2F0E9466081B
:101180000E945D0881E0DF91CF911F910895CF9378
:10119000DF93EC01898D9A8D892B41F0E881F981EB
:1011A0000284F385E02DCE011995F4CFDF91CF9124
:1011B0000895CF93DF931F92CDB7DEB76983DC012B
:1011C000ED91FC910280F381E02D41E050E0BE0101
:1011D0006F5F7F4F19950F90DF91CF9108951F9307
:1011E000CF93DF93FB01DC0158961C921E92579718
:1011F0002281211109C02381211106C024812111DE
:1012000003C02581222339F14115510521F1EA015D
:10121000DC011C961C91AF014E5F5F4F612F629500
:10122000660F607E645F24E030E08CE090E00E9416
:1012300070084D2F60E170E0812F0E94A2084C2FB2
:1012400061E170E0812F0E94A20881E090E0DF91CF
:10125000CF911F91089590E080E0F9CFFC01818D3E
:10126000928D0895FC0185899689089528E932E0D8
:10127000FC0131832083FB01418952896389748990
:10128000FC014283538364837583089580E008954D
:10129000FC019485FB018485981303C081E098309C
:1012A00009F480E0089521E0FC018485883009F488
:1012B00020E0822F08950895CF93DF931F92CDB73A
:1012C000DEB76983DC01ED91FC910280F381E02DB2
:1012D00041E050E0BE016F5F7F4F19950F90DF91A5
:1012E000CF910895DC01ED91FC91028CF38DE02DFE
:1012F000199591E089270895CF93DF93C82FD62FB2
:101300008091490590914A050E946D080E946108EC
:1013100080E00E9466088D2F0E9466088C2F8295BF
:10132000880F807E885F0E94660880E00E946608C1
:10133000C82F0E945D088C2FDF91CF910895BF9236
:10134000CF92DF92EF92FF920F931F93CF93DF9391
:10135000B82E6B017A01890164E270E00E947C0979
:10136000C82F65E270E08B2D0E947C09D0E0DC2F55
:10137000CC278C0D9D2D911DC80FD91F6B2D62950B
:10138000660F607E6C5E9801A701CE010E94700816
:10139000C00FD11F4D2F64E270E08B2D0E94A20878
:1013A0004C2F65E270E08B2DDF91CF911F910F9153
:1013B000FF90EF90DF90CF90BF900C94A208CF9356
:1013C000C82F462F61E070E00E94A20861E070E043
:1013D0008C2F0E947C098111F9CFCF910895CF9372
:1013E000C82F60E170E00E94DF094FEF62E070E01B
:1013F0008C2FCF910C94A2080F931F93CF93DF9360
:10140000C82FD62F8A010E94EF094D2F70E060E0AF
:101410008C2F0E94A20801151105B9F0412F64E03C
:1014200070E08C2F0E94A208402F65E070E08C2FA6
:101430000E94A20861E070E08C2F0E94DF0981E029
:10144000DF91CF911F910F91089500919703109113
:1014500098030F5F1F4F1093980300939703DECFFD
:10146000CF93DF93EC018C85883021F00E94EF0947
:1014700088E08C87DF91CF910895AF92BF92CF9291
:10148000DF92EF92FF920F931F93CF93DF93F82E8B
:101490005B016A01E22E68E270E00E947C09082F7D
:1014A00010E0102F002769E270E08F2D0E947C0968
:1014B000E801C80FD11D8091490590914A050E940D
:1014C0006D080E9461088D2F0E9466088C2F0E9473
:1014D00066088F2D8295880F807E885E0E94660840
:1014E0008501AC0CBD1C80E00E946608F801819368
:1014F0008F01EA15FB05B9F70E945D08E11018C0DD
:10150000CC0DDD1D4D2F68E270E08F2D0E94A208EA
:101510004C2F69E270E08F2DDF91CF911F910F91D9
:10152000FF90EF90DF90CF90BF90AF900C94A20807
:10153000DF91CF911F910F91FF90EF90DF90CF90AF
:10154000BF90AF9008950F931F93CF93DF931F9297
:10155000CDB7DEB78C01DC01ED91FC910084F18503
:10156000E02D1995892B91F021E041E050E0BE017A
:101570006F5F7F4FF80184850E943D0A898190E06A
:101580000F90DF91CF911F910F9108958FEF9FEFF3
:10159000F7CFCF93DF931F92CDB7DEB7FC01218D3C
:1015A000328D8FEF9FEF232B59F021E041E050E087
:1015B000BE016F5F7F4F84850E943D0A898190E064
:1015C0000F90DF91CF9108951F93CF93DF93182F42
:1015D00066E270E00E947C09C82FD0E0DC2FCC27A7
:1015E00067E270E0812F0E947C098C0F9D2F911D76
:1015F000DF91CF911F910895FF920F931F93CF9387
:10160000DF93F82E10E000E08F2D0E94E40AEC0139
:10161000892B21F08F2D0E94E40A8C01C017D1077D
:1016200099F7CE01DF91CF911F910F91FF9008950F
:10163000FC018485883011F00C94FC0A90E080E075
:1016400008951F93CF93DF93182F60E270E00E94FC
:101650007C09C82FD0E0DC2FCC2761E270E0812F1D
:101660000E947C098C0F9D2F911DDF91CF911F91BE
:101670000895FF920F931F93CF93DF93F82E10E0FE
:1016800000E08F2D0E94210BEC01892B21F08F2D82
:101690000E94210B8C01C017D10799F7CE01DF9171
:1016A000CF911F910F91FF900895AF92BF92CF926B
:1016B000DF92FF920F931F93CF93DF938C015B0117
:1016C000EA01FC01C788D08CF4848F2D0E94390B6D
:1016D0008C179D0720F48F2D0E94390BEC019E0181
:1016E000A501B6018F2D0E949F09F8018789908D71
:1016F0008C0F9D1F908F878BCE01DF91CF911F9113
:101700000F91FF90DF90CF90BF90AF900895FC01B4
:101710008485883021F063E070E00C947C0980E0DF
:101720000895CF93DF93FC0124852830D9F0EC0194
:101730000E94870B843189F0882379F0883169F021
:1017400021E08C3159F4E881F9810084F185E02DA4
:10175000CE01199521E0892B09F420E0822FDF9139
:10176000CF91089580E0FBCFCF92DF92EF92FF926E
:10177000CF93DF93EC018C85883049F168E070E00D
:101780000E94DF090E94D5026B017C01CE010E94FC
:10179000870B882391F00E94D5026C197D098E0970
:1017A0009F09683E73408105910538F461E070E05F
:1017B00080E090E00E94A302E9CFCE010E94870B57
:1017C000882319F08C850E94EF0988E08C87DF91CF
:1017D000CF91FF90EF90DF90CF900895CF92DF925E
:1017E000EF92FF921F93CF93DF93182F6B017A0133
:1017F0000E94FC0AEC010097D9F463E070E0812FAD
:101800000E947C09843159F0882349F0C1E0D0E07E
:101810008C3111F4D0E0C0E0D195C195D109CE0151
:10182000DF91CF911F91FF90EF90DF90CF900895BF
:10183000E816F9060CF4E7011C161D0684F720E0F3
:10184000AE01B601812F0E943D0A60E470E0812F55
:101850000E94DF09E4CFCF93DF93FC01218D328D0D
:101860002115310529F48FEF9FEFDF91CF91089576
:10187000EC0184854217530708F0A9010E94EE0B82
:101880001816190684F7298D3A8D281B390B3A8FC3
:10189000298FEBCF0F931F93CF93DF931F92CDB779
:1018A000DEB7FC01218D328D232B41F48FEF9FEFAA
:1018B0000F90DF91CF911F910F9108958C0141E01E
:1018C00050E0BE016F5F7F4FFC0184850E94EE0BEC
:1018D000181619065CF7F801818D928D0197928F89
:1018E000818F898190E0E4CFFC0184850C94EE0B1C
:1018F000CF93DF931F92CDB7DEB741E050E0BE013A
:101900006F5F7F4FFC0184850E94EE0B181619064D
:1019100034F4898190E00F90DF91CF9108958FEF9B
:101920009FEFF9CFCF93FC01C48560E270E08C2F6C
:101930000E94DF0962E070E08C2F0E947C0984FD28
:1019400011C062E070E08C2F0E947C0983FFF2CF0F
:1019500048E162E070E08C2F0E94A20890E080E0F5
:10196000CF91089540E162E070E08C2F0E94A208C0
:1019700081E090E0F5CFEF92FF921F93CF93DF933A
:10198000FC012485283039F080E0DF91CF911F9150
:10199000FF90EF9008957B01EC0110E063E070E0B0
:1019A000812F0E947C0981110EC01C878C85883094
:1019B00059F3FE86ED861A8E198EA70162E00E9409
:1019C000FC0981E0E2CF883181F31F5F183031F7E5
:1019D000EDCF8F929F92AF92BF92CF92DF92EF9214
:1019E000FF920F931F93CF936C015B017A01FC016F
:1019F000C485C830A1F481E090E0F601938382832E
:101A0000F12CE12CC701CF911F910F91FF90EF9026
:101A1000DF90CF90BF90AF909F908F9008958A01F4
:101A20004130584010F000E018E08C2F0E94390B34
:101A30004C0163E070E08C2F0E947C09873111F02B
:101A40008C3109F58016910680F39801A50170E0AC
:101A500060E08C2F0E949F0960E270E08C2F0E9452
:101A6000DF0962E070E08C2F0E947C0984FD0EC0CB
:101A700063E070E08C2F0E947C098111F2CF8C2FE3
:101A80000E94EF09B8CF10E000E0DFCF40E162E054
:101A900070E08C2F0E94A208012B09F0B3CFABCFCE
:101AA000DF92EF92FF920F931F93CF93DF93FC018E
:101AB0002485283051F090E080E0DF91CF911F9194
:101AC0000F91FF90EF90DF9008957A01EB018C0168
:101AD000D12C63E070E08D2D0E947C09811128C01B
:101AE000F801D486F8018485883029F3209100021A
:101AF000309101022F5F3F4F19F130930102209383
:101B00000002409100025091010261E00E94FC0934
:101B10008A818F3FC1F48B818F3F01F58C818F3F8C
:101B2000E9F48D818F3FD1F488E0F8018487C3CF39
:101B30008B7F8831A9F2D394F8E0DF12CACFD2CFDD
:101B400020E034E0DACF811109C08B81811106C019
:101B50008C81811103C08D81882331F3E114F1045C
:101B600019F3F801D484AE014E5F5F4F6D2D62957D
:101B7000660F607E645F24E030E08CE090E00E94BD
:101B800070084F2D60E170E08D2D0E94A2084E2D4F
:101B900061E170E08D2D0E94A20864E070E08D2D5F
:101BA0000E94DF09C8010E94870B873161F061E064
:101BB00070E080E090E00E94A302C8010E94870BC1
:101BC0008111F0CFB1CF81E090E077CFDC01ED91D2
:101BD000FC91048CF58DE02D199490E080E008953F
:101BE000CF93DF93EC0160E08E810E94B60161E04B
:101BF0008E810E94B60160E08E810E94B6018BE862
:101C000091E00197F1F7DF91CF910895CF92DF92A4
:101C1000EF92FF920F931F93CF93DF936C017C01A0
:101C200087E0E80EF11CD0E0C0E0062F10E0B8011C
:101C30000C2E02C0759567950A94E2F76170F70162
:101C400081917F010E94B6012196C430D10579F7B8
:101C5000C601DF91CF911F910F91FF90EF90DF9020
:101C6000CF900C94F00DCF92DF92EF92FF920F93F2
:101C70001F93CF93DF93EC01F62E642F8C810E948B
:101C8000B6018D818F3F19F060E00E94B6010F2DE3
:101C900010E08F8584FF25C06E0187E0C80ED11C3F
:101CA000F12CE12CB8010E2C02C0759567950A94B1
:101CB000E2F76170F60181916F010E94B601FFEFBA
:101CC000EF1AFF0A88E0E816F10461F7CE01DF9110
:101CD000CF911F910F91FF90EF90DF90CF900C94D8
:101CE000F00DB80184E0759567958A95E1F7CE010E
:101CF0000E94060E6F2DCE01DF91CF911F910F91A3
:101D0000FF90EF90DF90CF900C94060E40E0682F8C
:101D100083EC95E00C94330ECF93DF93613029F080
:101D20009091D20598609093D2056093D605109259
:101D3000D70590E49093D8058093D905805C809373
:101D4000DA0561E08091C7050E9442028091C805D2
:101D50008F3F19F061E00E94420261E08091C90565
:101D60000E944202C3ECD5E09E01235C3540809185
:101D7000D20584FD0BC084E090E021962817390736
:101D800044F461E08E810E944202EECF88E090E050
:101D9000F4CF8BE39DE00197F1F760E08091C705F8
:101DA0000E94B60160E08091C9050E94B601809151
:101DB000C8058F3F19F060E00E94B6018091D205FE
:101DC00084FD39C063E083EC95E00E94060ECBE40D
:101DD000D6E4CE010197F1F763E083EC95E00E9431
:101DE000060E2197F1F763E083EC95E00E94060E62
:101DF00083E592E00197F1F762E083EC95E00E94C1
:101E0000060E8091D20580620E94860E84E0809347
:101E1000D3058CE00E94860E81E00E94860E8BE343
:101E20009FE10197F1F782E08093D40586E0DF918E
:101E3000CF910C94860E80620E94860E8BE496E40D
:101E40000197F1F78091D20580620E94860E83E5AA
:101E500092E00197F1F78091D20580620E94860E90
:101E6000D0CF41E00E94330E81E090E008958F9240
:101E70009F92AF92BF92EF92FF920F931F93CF93D7
:101E8000DF93CDB7DEB7A1970FB6F894DEBF0FBED4
:101E9000CDBF7C01FA01CB0119A2223008F42AE05F
:101EA0008E010F5D1F4F822E912CB12CA12CBF01F2
:101EB000A50194010E94AF20F901CA016A3074F5AE
:101EC000605DD8016E938D01232B242B252B79F790
:101ED00090E080E0109789F0FD0101900020E9F783
:101EE0003197AF014A1B5B0BD701ED91FC9102804A
:101EF000F381E02DB801C7011995A1960FB6F894AA
:101F0000DEBF0FBECDBFDF91CF911F910F91FF902C
:101F1000EF90BF90AF909F908F900895695CD1CF64
:101F20008F929F92AF92BF92CF92DF92EF92FF92E9
:101F30000F931F93CF93DF937C01EB016C0182E041
:101F4000C80ED11C4701E5E08E0E911C10E000E0A8
:101F5000F60141916F0150E070E060E02AE0CE01AF
:101F60000E94370F5C01E881F9810190F081E02D3A
:101F70006EE2CE0119958A0D9B1D080F191FC8141A
:101F8000D90431F7F701458150E070E060E02AE0C4
:101F9000CE010E94370F800F911FDF91CF911F91CB
:101FA0000F91FF90EF90DF90CF90BF90AF909F90F8
:101FB0008F900895009769F0FC0101900020E9F7E7
:101FC0003197AF01481B590BBC0183EC95E00C9491
:101FD000E90290E080E008950F931F93CF93DF9381
:101FE000FC01048115810115110539F4FB011082F2
:101FF000DF91CF911F910F910895415051094017E2
:10200000510708F48A01EB01FC0160817181A8018C
:10201000CE010E943423C00FD11F1882E9CFFC01EA
:1020200080819181009711F00C942B2060E070E08A
:10203000CB0108950F931F93CF93DF938C01EB0196
:10204000FC01808191810097E1F0688179816115BF
:102050007105A9F0428153812C813D8142175307BC
:1020600070F00E941F238C819D81F80195838483E9
:102070001D821C82DF91CF911F910F9108950E94C4
:10208000AC2188819981F801918380838A819B8129
:10209000938382838C819D819583848319821882A6
:1020A0001B821A82E5CFCF93DF93EC01888199815F
:1020B000009711F00E94AC21198218821D821C82A7
:1020C0001B821A82DF91CF910895FC01808191815A
:1020D000009711F00C94AC2108950F931F93CF93A8
:1020E000DF93EC0188819981009759F02A813B8127
:1020F0002617370730F081E0DF91CF911F910F91C4
:1021000008958B016F5F7F4F0E943522009759F031
:10211000998388831B830A832C813D81232B59F764
:10212000FC011082E8CF80E0E7CFEF92FF920F939F
:102130001F93CF93DF93EC017B018A01BA010E94C8
:102140006D1081110BC0CE010E945310CE01DF91A2
:10215000CF911F910F91FF90EF9008951D830C83F5
:10216000B701888199810E941F23F0CFEF92FF92DF
:102170000F931F93CF93DF93CDB7DEB762970FB660
:10218000F894DEBF0FBECDBF8C01CB01F8011182E8
:10219000108213821282158214824AE09E012F5F00
:1021A0003F4F7901B9010E945220F70101900020B0
:1021B000E9F73197AF014E195F09B701C8010E94D5
:1021C000951062960FB6F894DEBF0FBECDBFDF91BB
:1021D000CF911F910F91FF90EF900895CF93DF93D0
:1021E000EC01FB018617970749F060817181611549
:1021F000710541F0448155810E949510CE01DF9117
:10220000CF9108950E945310F9CFFC0111821082E2
:102210001382128215821482FB0101900020E9F7DB
:102220003197AF01461B570B0C949510AF92BF929C
:10223000CF92DF92EF92FF920F931F93CF93DF9392
:102240007C016B015A0189012417350720F48B2D7D
:102250005901042F182F69EB72E0C7010E94051184
:10226000D6011496CD91DC91AC16BD0620F50C1765
:102270001D0708F4E801D601ED91FC911197EC0FD0
:10228000FD1F108110826D917C916A0D7B1D61157F
:102290007105E9F0FB0101900020E9F73197AF01EA
:1022A000461B570BC7010E949510F6018081918152
:1022B000C80FD91F1883C701DF91CF911F910F91CC
:1022C000FF90EF90DF90CF90BF90AF900895C7013F
:1022D0000E945310EACFCF92DF92EF92FF920F93BA
:1022E0001F93CF93DF93CDB7DEB72C970FB6F8943B
:1022F000DEBF0FBECDBF8C017B0169EB72E00E9497
:102300000511B701CE0101960E94B610BE016F5FA4
:102310007F4FC8010E941A10CE0101960E946510DD
:102320008AE0E816F1040CF042C06AE972E0CE01DE
:1023300001960E94051118861F821A8619861C862E
:102340001B86BE016F5F7F4FCE0107960E94EE1085
:10235000F801C080D180C114D104C9F1E480F580B6
:10236000E114F104B1F08B859C85E80EF91EB701EC
:10237000CE0107960E946D10882349F12F81388580
:102380008B859C85B601820F931F0E941F23FC86BC
:10239000EB86BE01695F7F4FC8010E94EE10CE013F
:1023A00007960E946510CE0101960E946510C80133
:1023B0002C960FB6F894DEBF0FBECDBFDF91CF9144
:1023C0001F910F91FF90EF90DF90CF900895CE0175
:1023D00007960E945310DDCF85ED8093BC0080915D
:1023E0000B0490910C04A0910D04B0910E0407967B
:1023F000A11DB11D23E0B695A795979587952A95C0
:10240000D1F72091BC0024FD03C010920904089567
:1024100040910B0450910C0460910D0470910E04D6
:10242000452B462B472B69F30097A105B10541F0D9
:102430002AE22A95F1F700C00197A109B109E1CF7D
:1024400080910A040C94FE050F931F93CF93DF93A2
:1024500000D000D01F921F92CDB7DEB78C01DC01F7
:10246000ED91FC910680F781E02D1995F8018485A6
:102470000E94FC0A892BB1F148E050E0BE016F5F79
:102480007F4FD8011C968C910E94EE0B18161906EE
:10249000F4F4D801519684E0FE01319601900D923A
:1024A0008A95E1F78D8190E0982F88272E81820F01
:1024B000911DF801968B858B8F81282F30E0322F6C
:1024C00022278885820F932F911D928F818F2896C6
:1024D0000FB6F894DEBF0FBECDBFDF91CF911F9135
:1024E0000F91089590E080E0F2CF4F925F926F924B
:1024F0007F928F929F92AF92BF92CF92DF92EF9294
:10250000FF920F931F93CF93DF93CDB7DEB76397FF
:102510000FB6F894DEBF0FBECDBF7C016B013A0150
:10252000FB01DB018D918111FDCF30E020E090E0D7
:1025300080E05AE04191442301F1843091050CF090
:1025400042C04E3269F42F3F310509F0E4F5D30162
:10255000A80FB91F12962C93019630E020E0EACF25
:10256000529FB001539F700D1124242F440F330B41
:1025700020533109260F371FDDCF2F3F310509F0DA
:1025800014F584309105FCF4680E791EF301228362
:10259000CC24C394D12CC60163960FB6F894DEBF49
:1025A0000FBECDBFDF91CF911F910F91FF90EF90A4
:1025B000DF90CF90BF90AF909F908F907F906F9063
:1025C0005F904F900895F701428153816481758136
:1025D0008091780590917905A0917A05B0917B055D
:1025E000481759076A077B0709F400C28701085F8B
:1025F0001F4F0E94D5026F7077277C5FC8010E9431
:10260000BB0C813009F0F7C188E992E09A83898395
:10261000F70182819381A481B5818B839C83AD83F3
:10262000BE8345E350E0BE016F5F7F4FC8010E944B
:10263000EF08892B31F4D12CC12CC8010E94300A3B
:10264000AACF0E94D502F7017783668342E050E06B
:10265000B7016A5F7F4FC8010E94550B81E090E08F
:102660009A83898342E050E0BE016F5F7F4FC801CB
:102670000E94550B80E091E09A83898342E050E00C
:10268000BE016F5F7F4FC8010E94550B1A821982ED
:1026900042E050E0BE016F5F7F4FC8010E94550BC2
:1026A00042E050E0BE016F5F7F4FC8010E94550BB2
:1026B00042E050E0BE016F5F7F4FC8010E94550BA2
:1026C0005601F6018081882301F16501F6018191AF
:1026D0002F01882311F08E32B1F446018A189B082D
:1026E0001814190474F48D8641E050E0BE01635F54
:1026F0007F4FC8010E94550BA401B501C8010E947B
:10270000550B5201DECF6201E1CF1D8641E050E062
:10271000BE01635F7F4FC8010E94550BC12CDD24B1
:10272000D394DA82C98242E050E0BE016F5F7F4FEE
:10273000C8010E94550BDA82C98242E050E0BE0116
:102740006F5F7F4FC8010E94550BC8010E94920C19
:10275000892B09F470CFF3E0AF2EB12C230122E0D6
:10276000420E511C43C0F70142815381648175813F
:10277000818D928DA38DB48D481759076A077B0709
:1027800009F02AC1858D968DC59709F025C181A1D3
:1027900092A10C970CF425C14CE050E0BE016F5F94
:1027A0007F4FC8010E942B0C8B819C819827892721
:1027B00098279A8B898BF7014681578129813A8125
:1027C0004217530711F497FD2FC0C8010E94C70894
:1027D000ECEFCE2EDD24DA9481E0A81AB10809F4DA
:1027E0002CCFFFEFCF16DF0609F027CF0E94D502CE
:1027F0003B014C01C8010E942412181619060CF462
:10280000B2CF0E94D50266197709880999096938FB
:1028100073418105910508F0DBC062E370E080E060
:1028200090E00E94A302E6CF8F709270892B41F056
:10283000C8010E94C7087BEFC72EDD24DA94CCCFF5
:102840006F807884762467247624D12CC12C61147F
:102850007104D1F4C8010E94C7086AEFC62EDD24B6
:10286000DA94BACF8D85811117C0C8010E944A0C35
:10287000C8010E944A0CC8010E944A0CC8010E946B
:102880004A0CFFEFCF1ADF0A8D819E819827892796
:102890009827C816D906A8F441E050E0BE01635F4E
:1028A0007F4FC8010E942B0C8D858823D9F28D851E
:1028B0009FEF980F9D878823A9F2C8010E944A0CB8
:1028C000F6CF912C812C41E050E0BE016D5E7F4F30
:1028D000C8010E942B0C8B89982F907C61F488236F
:1028E00089F08B899FEF980F9B8B882341F0C8015B
:1028F0000E944A0CF6CFC8010E944A0C1B8A8B89A1
:102900008111E1CF42E050E0BE01615F7F4FC8011D
:102910000E942B0C42E050E0BE01635F7F4FC80174
:102920000E942B0CC8010E944A0CC8010E944A0C4C
:10293000C8010E944A0CC8010E944A0C42E050E0C3
:10294000BE016F5E7F4FC8010E942B0C8F85988956
:1029500081159140E9F4CD84DE84DC24CD24DC248F
:1029600081E0C816D104A1F489899A89811594401F
:1029700041F0C8010E94C70857EFC52EDD24DA9444
:102980002BCF44E050E0B201C8010E942B0C24CFB1
:10299000D12CC12C89899A89982789279827C8160C
:1029A000D90638F4C8010E944A0CFFEFCF1ADF0A9B
:1029B000F1CF2FEF821A920A6814790409F083CFBD
:1029C000C8010E94C70846EFC42EDD24DA9404CF64
:1029D000CC24CA94DC2C00CF2EEFC22EDD24DA9456
:1029E000FBCE9DEFC92EDD24DA94F6CE8EEFC82EF5
:1029F000DD24DA94D0CDD12CC12CCDCDCF92DF9275
:102A0000EF92FF920F931F93CF93DF93CDB7DEB773
:102A1000AF970FB6F894DEBF0FBECDBF7C016A0141
:102A200008E912E01A8309831C861B8688EE93E06E
:102A3000A0E0B0E08D879E87AF87B88B8CE092E0F6
:102A40009A87898788E08D8B198F088F1A8E1B8E45
:102A50001C8E1D8E1BA70AA71CA61DA61EA61FA6A0
:102A60008091650590916605A0916705B091680514
:102A70008EA39FA3A8A7B9A78B839C83AD83BE8396
:102A800018861F82AE01465D5F4FCE0101960E94FF
:102A9000751281309105B1F4D701ED91FC91048854
:102AA000F589E02D1DA30CA38CA59DA5AEA5BFA502
:102AB0008EA39FA3A8A7B9A7A601BE016C5D7F4FF7
:102AC000C7011995AF960FB6F894DEBF0FBECDBF04
:102AD000DF91CF911F910F91FF90EF90DF90CF90FA
:102AE0000895CF92DF92EF92FF920F931F93CF93AF
:102AF000DF93CDB7DEB7AF970FB6F894DEBF0FBE4A
:102B0000CDBF7C016A0108E912E01A8309831C86A3
:102B10001B8688EE93E0A0E0B0E08D879E87AF87AC
:102B2000B88B8CE092E09A87898788E08D8B198F2B
:102B3000088F1A8E1B8E1C8E1D8E1BA70AA71CA623
:102B40001DA61EA61FA68091650590916605A09101
:102B50006705B09168058EA39FA3A8A7B9A78B832B
:102B60009C83AD83BE8318861F82AE01465D5F4F96
:102B7000CE0101960E94751281309105B1F4D70102
:102B8000ED91FC910684F785E02D1DA30CA38CA587
:102B90009DA5AEA5BFA58EA39FA3A8A7B9A7A60173
:102BA000BE016C5D7F4FC7011995AF960FB6F894C3
:102BB000DEBF0FBECDBFDF91CF911F910F91FF9070
:102BC000EF90DF90CF9008951F920F920FB60F9263
:102BD00011242F933F938F939F93AF93BF93809133
:102BE0008F0390919003A0919103B0919203309143
:102BF0008E0323E0230F2D3758F50196A11DB11D3B
:102C000020938E0380938F0390939003A09391035E
:102C1000B09392038091930390919403A0919503B4
:102C2000B09196030196A11DB11D809393039093DB
:102C30009403A0939503B0939603BF91AF919F9196
:102C40008F913F912F910F900FBE0F901F9018956D
:102C500026E8230F0296A11DB11DD2CF1F920F921D
:102C60000FB60F9211240BB60F922F933F934F93F1
:102C70005F936F937F938F939F93AF93BF93EF93E4
:102C8000FF938FE094E00E949903FF91EF91BF9131
:102C9000AF919F918F917F916F915F914F913F91F4
:102CA0002F910F900BBE0F900FBE0F901F90189595
:102CB0001F920F920FB60F9211240BB60F922F9303
:102CC0008F939F93EF93FF93E0911F04F091200463
:102CD0008081E0912504F091260482FD1DC0908141
:102CE000809128048F5F8F7320912904821741F00F
:102CF000E0912804F0E0E15FFB4F958F809328047A
:102D0000FF91EF919F918F912F910F900BBE0F909C
:102D10000FBE0F901F9018958081F2CF1F920F92D7
:102D20000FB60F9211240BB60F922F933F934F9330
:102D30005F936F937F938F939F93AF93BF93EF9323
:102D4000FF938CEA94E00E949903FF91EF91BF9169
:102D5000AF919F918F917F916F915F914F913F9133
:102D60002F910F900BBE0F900FBE0F901F901895D4
:102D70001F920F920FB60F9211240BB60F922F9342
:102D80008F939F93EF93FF93E091BC04F091BD0468
:102D90008081E091C204F091C30482FD1DC0908146
:102DA0008091C5048F5F8F732091C604821741F014
:102DB000E091C504F0E0E455FB4F958F8093C50486
:102DC000FF91EF919F918F912F910F900BBE0F90DC
:102DD0000FBE0F901F9018958081F2CF1F920F9217
:102DE0000FB60F9211240BB60F922F933F934F9370
:102DF0005F936F937F938F939F93AF93BF93EF9363
:102E0000FF938091B900887F803609F44DC008F0A7
:102E100040C0883209F4A9C028F5803109F49DC06A
:102E2000C8F4882309F4FBC0883009F496C0FF91E8
:102E3000EF91BF91AF919F918F917F916F915F9132
:102E40004F913F912F910F900BBE0F900FBE0F909F
:102E50001F901895883109F488C0803241F780931B
:102E6000E70314C0803409F49DC040F48033B9F303
:102E70008833E9F68093E70385ECB0C0803509F428
:102E800085C0883509F496C0883489F60E94EC1113
:102E9000CECF883909F48CC038F5883729F050F442
:102EA000883611F0803719F683E080930904109278
:102EB0001D0357C0883809F47BC0803919F0803869
:102EC00009F0B5CF80911D03803208F071C0E09108
:102ED0001D0381E08E0F80931D038091BB00F0E005
:102EE000E350FD4F80833DC0803B39F0E0F4803AF1
:102EF00009F479C0883A09F09ACF84E080930904F4
:102F00001092FC021092FB02E0919B03F0919C0353
:102F100019958091FB0281110FC081E08093FB0223
:102F20001092DB0209C0803C09F4A6CF883C09F46A
:102F3000A3CF883B09F07BCFE091FC0281E08E0FAC
:102F40008093FC02F0E0E552FD4F80818093BB004E
:102F50009091FC028091FB0229C08091E403809350
:102F6000BB0085EC8093BC0062CF9091E60380911A
:102F7000E503981758F5E091E60381E08E0F809302
:102F8000E603F0E0ED53FC4F8081E9CFE091E603EA
:102F900081E08E0F8093E6038091BB00F0E0ED535B
:102FA000FC4F80839091E6038091E5039817C8F267
:102FB00085E8D8CFE091E60381E08E0F8093E603A9
:102FC0008091BB00F0E0ED53FC4F80838091E803DB
:102FD00081115CCF81E08093E30384EA8093BC009D
:102FE0001092090424CF85EC8093BC001092090450
:102FF00080911D03803230F4E0911D03F0E0E35036
:10300000FD4F108260911D0370E0E0919903F091F3
:103010009A038DEF92E0199510921D0308CF10923C
:10302000E70334CF10929E0310929D031092A003E9
:103030001092C2030E94E00584EB91E090939C0300
:1030400080939B0385EB91E090939A03809399037F
:1030500008958F929F92AF92BF92CF92DF92EF929C
:10306000FF921F93CF93DF93EFE0F4E0138212827D
:1030700088EEC82E83E0D82EE12CF12CC482D582B4
:10308000E682F78286E492E09183808325E331E053
:103090003587248724E331E03787268720E331E032
:1030A000318B208B21E331E0338B228B22E331E023
:1030B000358B248B26E331E0378B268B118E128ED5
:1030C000138E148EECEAF4E013821282C482D5824D
:1030D000E682F7829183808385EC90E095878487F0
:1030E00084EC90E09787868780EC90E0918B808BD2
:1030F00081EC90E0938B828B82EC90E0958B848BBB
:1031000086EC90E0978B868B118E128E138E148E28
:103110000E941218E2E8F5E013821282C482D5827E
:10312000E682F78288E592E091838083E9E4F5E026
:1031300080E5808311E01183EBE4F5E0C8E9D2E09B
:10314000D183C0831282138214821582E1E5F5E0F7
:10315000D183C0831282138214821582E7E5F5E0E1
:10316000D183C0831282138214821582EDE5F5E0CB
:10317000D183C0831282138214821582E0E7F5E0C6
:10318000D183C0831282138214821582E3E6F5E0B4
:10319000D183C08312821382148215821386128611
:1031A0008AE08487E6E7F5E0D183C0831282138248
:1031B00014821582ECE7F5E0D183C083128213827A
:1031C00014821582EBEDF5E0D183C0831282138265
:1031D00014821582E3ECF5E0138212828CE892E00F
:1031E0009183808385E2848386E2858387E2868378
:1031F00088E2878389E280878AE281878BE28287FF
:103200008CE283878DE284878EE285878FE28687D2
:1032100080E1878761E00E948C0E98EBA92E95E0F3
:10322000B92E20E5822E912CF5019182808280E2D8
:1032300082870E941218F5019182808280E4828741
:103240000E941218EBEAF5E013821282C482D58242
:10325000E682F7828AE692E09183808388E0848721
:10326000EEE8F5E01683D487C387158616861786A1
:10327000108AD28BC18B138A148A158A168AD08F32
:10328000C78B118E128E138E148EE3E1F6E0D1837C
:10329000C083128213821482158269EB72E08FEE72
:1032A00095E00E94051169EB72E085EF95E00E94C0
:1032B000051169EB72E08BEF95E00E94051169EB57
:1032C00072E081E096E00E94051169EB72E087E010
:1032D00096E00E94051169EB72E08DE096E0DF91C7
:1032E000CF911F91FF90EF90DF90CF90BF90AF9064
:1032F0009F908F900C940511CF93DF93CDB7DEB7DD
:10330000CE54D1090FB6F894DEBF0FBECDBF78946E
:1033100084B5826084BD84B5816084BD85B58260DA
:1033200085BD85B5816085BD80916E00816080938B
:103330006E001092810080918100826080938100F4
:103340008091810081608093810080918000816004
:10335000809380008091B10084608093B10080915F
:10336000B00081608093B000809191008260809372
:1033700091008091910081608093910080919000F4
:103380008160809390008091A10082608093A10071
:103390008091A10081608093A1008091A000816054
:1033A0008093A0008091210182608093210180910F
:1033B00021018160809321018091200181608093AF
:1033C000200180917A00846080937A0080917A0055
:1033D000826080937A0080917A00816080937A0085
:1033E00080917A00806880937A001092C10069EB26
:1033F00072E0CE0101960E940511E091BC04F091AB
:10340000BD0492E09083E091B804F091B904108279
:10341000E091BA04F091BB0480E180831092C4046F
:10342000E091C004F091C10466E0F62EF082E091D4
:10343000BE04F091BF04808180618083E091BE046E
:10344000F091BF04808188608083E091BE04F09198
:10345000BF04808180688083E091BE04F091BF0446
:1034600080818F7D8083E0911F04F0912004908300
:10347000E0911B04F0911C041082E0911D04F09176
:103480001E048FEC808310922704E0912304F091B6
:103490002404F082E0912104F09122048081806173
:1034A0008083E0912104F0912204808188608083F0
:1034B000E0912104F0912204808180688083E09172
:1034C0002104F091220480818F7D808385E38093A5
:1034D0006F0562E080E20E94420262E081E20E94A7
:1034E000420262E082E20E94420262E083E20E94C3
:1034F000420262E084E20E94420262E083E00E94B3
:10350000420260E08FE10E94420260E085E40E9496
:10351000420261E086E10E94420261E086E10E948F
:10352000B60161E087E10E94420261E087E10E940A
:10353000B60161E088E10E94420261E088E10E94F8
:10354000B60161E089E10E94420261E089E10E94E6
:10355000B60161E08AE10E94420261E08AE10E94D4
:10356000B60161E08BE10E94420261E08BE10E94C2
:10357000B60161E08CE10E94420261E08CE10E94B0
:10358000B60161E08DE10E94420261E08DE10E949E
:10359000B60164E084E10E948C0E8CE992E00E9406
:1035A000DA0F0EE815E0EE24E394F01A8091B805E6
:1035B000E0929F038093C1031092A0031092C20374
:1035C00081E00E94EE068111ACC08091B805E092C6
:1035D0009F038093C1031092A0031092C20360E086
:1035E00082E895E00E942E086F2D600F82E895E03A
:1035F0000E942E0881E00E94EE06811192C061E0D7
:103600008091B8050E941F0610929E0380939D032F
:10361000882309F486C082E895E00E94EE07D8016D
:103620008D938D01B5E004391B0709F0BFCFEFE49E
:10363000F3E02EE833E040E290E080E0DF01A80F05
:10364000B91F4C93019684319105C1F7148A759680
:103650002E173F0789F7CE0101960E94651044E6B8
:10366000842E912C50E9E52EFF24F39469EB72E04F
:10367000CE018D5B9F4F0E94051169EB72E0CE0178
:10368000CD960E94051169EB72E0CE01C7960E94AB
:10369000051169EB72E0CE01C1960E94051169EB3C
:1036A00072E0CE018B960E94051169EB72E0CE01AB
:1036B00085960E94051169EB72E0CE014F960E943B
:1036C00005118FE094E00E947903181619060CF09A
:1036D00088C469EB72E0CE0101960E9405110E9438
:1036E000390397FD20C08A309105E9F08F83188651
:1036F0000D811E810F5F1F4FB801CE0101960E9400
:103700006D10882361F329813A818D819E81BE01EC
:10371000695F7F4F820F931F0E941F231E830D83BB
:10372000DECF80E07CCFBE016F5F7F4FCE018D5B2F
:103730009F4F0E941A10CE0101960E94651061EB06
:1037400072E0CE0101960E9405114D815E8129969D
:103750008EAD9FAD29978417950780F025968EAD85
:103760009FAD2597009751F069817A8161157105A8
:1037700029F00E94262311E0892B09F010E0CE01E8
:1037800001960E946510112309F42BC41A8E198E1C
:103790001C8E1B8E1E8E1D8EBE016D5B7F4FCE015B
:1037A00049960E94EE1069EB72E0CE0143960E94AA
:1037B000051136E0C32ED12C02E110E00F5F1F4F40
:1037C00068EB72E0CE0101960E9405118D8D9E8DF1
:1037D0000817190770F4A98CBA8C69817A81C50120
:1037E000800F911F0E9443238C010A191B09892B0A
:1037F00011F40FEF1FEFCE0101960E946510E1E07A
:10380000CE1AD108D9F65801F3E0AF0EB11CA801C9
:103810004F5F5F4F9501BE01675E7F4FCE010196FE
:103820000E941611CE0101960E940F107093EC05B4
:103830006093EB05CE0101960E946510680125E0BA
:10384000C20ED11C9601A501BE01675E7F4FCE015D
:1038500001960E941611CE0101960E940F107093DE
:10386000EA056093E905CE0101960E946510980172
:10387000295F3F4FA601BE01675E7F4FCE010196D3
:103880000E941611CE0101960E940F106053784FCE
:103890007093E8056093E705CE0101960E946510DC
:1038A0002DE030E047E050E0BE01675E7F4FCE0183
:1038B00001960E941611BE016F5F7F4FCE014396A5
:1038C0000E941A10CE0101960E9465100091E70532
:1038D0001091E8052090E9053090EA058091EB050C
:1038E0002A968FAF2A9726E030E044E050E0BE01F0
:1038F0006D5E7F4FCE0101960E941611CE0101969A
:103900000E940F102B966FAF2B9724E030E042E01F
:1039100050E0BE016D5E7F4FCE0107960E941611EA
:10392000CE0107960E940F102C966FAF2C9722E0C5
:1039300030E050E040E0BE016D5E7F4FCE010D965D
:103940000E941611CE010D960E940F102D966FAF9A
:103950002D97F801043611050CF464C0E25BF740C2
:10396000E0933603209235032A969FAD2A979093D1
:1039700034032D96AFAD2D97A09332032C96BFAD97
:103980002C97B09331032B962FAD2B9720933003B8
:10399000AE2FB0E020E833E341EE51E00E949C20DE
:1039A0002B013C0102EB17E09F013327C801825B2A
:1039B000974082179307C4F12E54384FC901B401C0
:1039C0000E94E0206C01C901B7010E94E0205C0167
:1039D00000E312E0E1E0F0E03324C90183709927AD
:1039E0002F969FAF8EAF2F97E215F3050CF046C0D0
:1039F000E230F105A1F52F96AEADBFAD2F97AB2B01
:103A000071F5C114D10419F4A114B10441F5B0E861
:103A10004B0EBBE35B1EB6E26B1E711C31960F5F53
:103A20001F4FE2CF7E969CCFC80183709927892BC8
:103A300099F4C801B4010E94E020892B31F4C80137
:103A4000B7010E94E020892B39F490E8490E91E5F6
:103A5000591E91E0691E711C0F5F1F4FA7CFD8013F
:103A60008C91A82FB0E020E831E541E050E00E94C1
:103A70009C20460E571E681E791ED0CF2A96EFADA9
:103A80002A97E150FF0BDF0120E831E541E050E0EB
:103A90000E94A7205B016C012B96FFAD2B97AF0E08
:103AA000B11CC11CD11C2D96EFAD2D972E2F30E0EF
:103AB000A0E1BEE00E94D120A60EB71EC81ED91EEE
:103AC0002C96FFAD2C972F2F30E0ACE3B0E00E9496
:103AD000D1206A0D7B1D8C1D9D1D640D751D861DDD
:103AE000971D0E945504CE010D960E946510CE01CF
:103AF00007960E946510CE0101960E946510809184
:103B00002C0390912D03A0912E03B0912F03805789
:103B10009148AF4FBF4F80932C0390932D03A093F8
:103B20002E03B0932F030E947A040E94C004609178
:103B3000320370E07093E2056093E105CE010196D7
:103B40000E946B11BE016F5F7F4F8FEE95E00E9468
:103B50001A10CE0101960E9465100E947A040E94FC
:103B6000C0046091310370E07093E4056093E30555
:103B7000CE0101960E946B11BE016F5F7F4F85EFF2
:103B800095E00E941A10CE0101960E9465100E94D5
:103B90007A040E94C0046091300370E07093E605DF
:103BA0006093E505CE0101960E946B11BE016F5F27
:103BB0007F4F8BEF95E00E941A10CE0101960E9474
:103BC00065100E947A040E94C0046091360370E080
:103BD0006E54784F7093E8056093E705CE01019627
:103BE0000E94B610BE016F5F7F4F81E096E00E9499
:103BF0001A10CE0101960E9465100E947A040E945C
:103C0000C0046091350370E07093EA056093E905A4
:103C1000CE0101960E946B11BE016F5F7F4F87E05E
:103C200096E00E941A10CE0101960E9465100E9433
:103C30007A040E94C0046091340370E07093EC0534
:103C40006093EB05CE0101960E946B11BE016F5F80
:103C50007F4F8DE096E00E941A10CE0101960E94DF
:103C600065108D8D9E8D429740F0E98DFA8D3097CD
:103C700021F011E08189813409F010E0CE014396F2
:103C80000E946510CE0149960E94651045E050E003
:103C90006FE473E081E096E00E94EC0F0FE2009386
:103CA000530343E050E064E573E087E096E00E9450
:103CB000EC0F0093560343E050E067E573E08DE0BE
:103CC00096E00E94EC0F80E28093590343E050E0BD
:103CD0006AE573E08FEE95E00E94EC0F0AE3009333
:103CE0005C0343E050E06DE573E085EF95E00E94F2
:103CF000EC0F00935F0343E050E060E673E08BEF6E
:103D000095E00E94EC0F112309F43EC081E48093FA
:103D1000620381E090E09093390380933803E0914F
:103D2000D605E230E8F5E150F0E0ED53FA4F848932
:103D300080680E94860E8FE493E00E94DA0F69EBA0
:103D400072E0CE0107960E94051111E010939F03C7
:103D500088E68093C1031092A0031092C20360E032
:103D600082E895E00E942E0881E00E94EE068823FA
:103D7000C9F0109237038091370301E010E0811100
:103D800016C102E010E013C180913803909139030D
:103D9000019721F486E780936203C1CF86E5FBCFCC
:103DA000E1E0C2CF1093370367E088E60E941F0668
:103DB00010929E0380939D038730E8F282E895E09D
:103DC0000E94EE07782E829587702AE0A22E672D3A
:103DD0006F70B62E8A9DB00C112482E895E00E9487
:103DE000EE07982F92959F708F70182F9A9D100D47
:103DF000112482E895E00E94EE07982F9295937027
:103E00008F70082F9A9D000D112482E895E00E9482
:103E1000EE0782E895E00E94EE07982F92959F703A
:103E20008F70D82E9A9DD00C112482E895E00E94C4
:103E3000EE07982F92959F708F70C82E9A9DC00C98
:103E4000112482E895E00E94EE07982F92959F70CA
:103E5000682F6F70625E9A9D600D112477FC8BCF86
:103E600070E06E54784FCE0101960E94B610BE01EC
:103E70006F5F7F4FCE0107960E941A10CE01019608
:103E80000E94651045E050E064E673E0CE010796BD
:103E90000E94EC0F9FE2A92EA09268036C2D70E0A7
:103EA000CE0101960E946B11BE016F5F7F4FCE0164
:103EB00007960E941A10CE0101960E94651043E0F9
:103EC00050E069E673E0CE0107960E94EC0FA092E5
:103ED0006B036D2D70E0CE0101960E946B11BE0147
:103EE0006F5F7F4FCE0107960E941A10CE01019698
:103EF0000E94651043E050E06CE673E0CE01079647
:103F00000E94EC0F80E280936E03602F70E0CE0180
:103F100001960E946B11BE016F5F7F4FCE01079625
:103F20000E941A10CE0101960E94651043E050E0F5
:103F30006FE673E0CE0107960E94EC0F0AE3009350
:103F40007103612F70E0CE0101960E946B11BE01DA
:103F50006F5F7F4FCE0107960E941A10CE01019627
:103F60000E94651043E050E062E773E0CE010796DF
:103F70000E94EC0F009374036B2D70E0CE0101964C
:103F80000E946B11BE016F5F7F4FCE0107960E94AA
:103F90001A10CE0101960E94651043E050E065E7DB
:103FA00073E0CE0107960E94EC0F10E000E0CE0116
:103FB00007960E946510000F111FF801E45CFD4F89
:103FC00000811181E091D605E33058F5E150F0E031
:103FD000ED53FA4F848980680E94860EC8010E94C2
:103FE000DA0FCE014F960E946510CE0185960E9491
:103FF0006510CE018B960E946510CE01C1960E947D
:104000006510CE01C7960E946510CE01CD960E9424
:104010006510CE018D5B9F4F0E9465100E942804A1
:1040200025CBE2E0D4CF8DE096E00E94651087E0DA
:1040300096E00E94651081E096E00E9465108BEF8B
:1040400095E00E94651085EF95E00E9465108FEE67
:1040500095E00C9465101F93FC0199278827BC01FB
:10406000E89411911032E9F3193010F01E30C8F3C2
:104070001B3251F01D3249F4689406C00E945D2045
:10408000610F711D811D911D119110531A30B0F3F4
:104090003EF490958095709561957F4F8F4F9F4F1F
:1040A0001F910895BB274A3031F4992322F4BDE2D1
:1040B000909581959F4F0C947320592F482F372F3F
:1040C000262F660F771F881F991F660F771F881F7F
:1040D000991F620F731F841F951F660F771F881F1C
:1040E000991F0895BB27FB015527AA27880F991F01
:1040F000AA1FA41710F0A41B83955051B9F7A05D17
:10410000AA3308F0A95DA193009779F7B111B19393
:104110001192CB010C948C20DC01FC01672F719172
:104120007723E1F7329704C07C916D93708362919D
:10413000AE17BF07C8F308950E94D120A59F900D28
:10414000B49F900DA49F800D911D11240895B7FF79
:104150000C949C200E949C20821B930B0895A1E24A
:104160001A2EAA1BBB1BFD010DC0AA1FBB1FEE1FF1
:10417000FF1FA217B307E407F50720F0A21BB30B3C
:10418000E40BF50B661F771F881F991F1A9469F7B8
:1041900060957095809590959B01AC01BD01CF0114
:1041A0000895A29FB001B39FC001A39F700D811D10
:1041B0001124911DB29F700D811D1124911D089530
:1041C00097FB072E16F4009407D077FD09D00E94C4
:1041D000FC2007FC05D03EF4909581959F4F0895F3
:1041E000709561957F4F0895EE0FFF1F881F8BBF5D
:1041F0000790F691E02D1994AA1BBB1B51E107C053
:10420000AA1FBB1FA617B70710F0A61BB70B881F66
:10421000991F5A95A9F780959095BC01CD010895F5
:104220000F931F93CF93DF938230910510F482E0B8
:1042300090E0E0911B06F0911C0630E020E0B0E039
:10424000A0E0309799F42115310509F44AC0281BE4
:10425000390B24303105D8F58A819B8161157105B0
:1042600089F1FB0193838283FE0111C0408151815A
:104270000281138148175907E0F04817590799F44C
:10428000109761F012960C93129713961C93329626
:10429000CF01DF91CF911F910F91089500931B06DD
:1042A00010931C06F4CF2115310551F04217530726
:1042B00038F0A901DB019A01BD01DF01F801C1CF8E
:1042C000EF01F9CF90931C0680931B06CDCFFE0122
:1042D000E20FF31F81939193225031093983288390
:1042E000D7CF2091190630911A06232B41F4209143
:1042F00004023091050230931A062093190620918A
:104300000202309103022115310541F42DB73EB769
:104310004091060250910702241B350BE0911906CB
:10432000F0911A06E217F307A0F42E1B3F0B281793
:10433000390778F0AC014E5F5F4F2417350748F01E
:104340004E0F5F1F50931A06409319068193919365
:104350009FCFF0E0E0E09CCFCF93DF930097E9F0B0
:10436000FC01329713821282A0911B06B0911C06A9
:10437000ED0130E020E01097A1F420813181820F1F
:10438000931F2091190630911A062817390709F052
:1043900061C0F0931A06E0931906DF91CF9108955A
:1043A000EA01CE17DF07E8F54A815B819E014115DE
:1043B0005105B1F7E901FB83EA8349915991C40F93
:1043C000D51FEC17FD0761F4808191810296840F5F
:1043D000951FE90199838883828193819B838A83D6
:1043E000F0E0E0E012968D919C9113970097B9F55B
:1043F0002D913C911197CD010296820F931F209130
:10440000190630911A062817390739F6309751F5F1
:1044100010921C0610921B06B0931A06A093190660
:10442000BCCFD383C28340815181840F951FC817AD
:10443000D90761F44E5F5F4F88819981480F591FFA
:10444000518340838A819B81938382832115310527
:1044500009F0B0CFF0931C06E0931B069ECFFD0140
:10446000DC01C0CF13821282D7CF4F925F926F923E
:104470007F928F929F92AF92BF92CF92DF92EF92F4
:10448000FF920F931F93CF93DF938C01009799F4C2
:10449000CB01DF91CF911F910F91FF90EF90DF90B3
:1044A000CF90BF90AF909F908F907F906F905F90D4
:1044B0004F900C941021FC01E60FF71F9C01225035
:1044C0003109E217F30708F4AEC0D901CD91DC91B0
:1044D0001197C617D70720F1C530D10578F0CE0166
:1044E00004978617970750F0C61BD70B2297C193E6
:1044F000D1936D937C93CF010E94AC21C801DF91D1
:10450000CF911F910F91FF90EF90DF90CF90BF90D0
:10451000AF909F908F907F906F905F904F90089595
:104520005B01AC1ABD0A4C018C0E9D1EA0911B06AE
:10453000B0911C06512C412CF12CE12C109731F537
:104540008091190690911A068815990509F05CC0AA
:104550004616570608F058C0809102029091030257
:10456000009741F48DB79EB7409106025091070223
:10457000841B950BE817F90708F055C0F0931A064D
:10458000E0931906F90171836083B8CF8D919C91F6
:10459000119712966C90129713967C901397A8150A
:1045A000B90559F56C0142E0C40ED11CCA14DB04F4
:1045B00020F1AC014A195B09DA011296159780F0D7
:1045C0006282738251834083D9016D937C93E1149D
:1045D000F10471F0D7011396FC93EE9312978ECFEE
:1045E00022968C0F9D1FF90191838083F301EFCFF9
:1045F000F0931C06E0931B0681CF4816590608F479
:104600002C017D01D3019ACFCB010E9410217C01A6
:10461000009749F0AE01B8010E941623C8010E941C
:10462000AC2187016BCF10E000E068CFFB01DC011B
:1046300002C001900D9241505040D8F70895FB01FF
:10464000DC0101900D920020E1F70895FB01DC01EF
:104650004150504030F08D910190801919F40020A4
:10466000B9F7881B990B0895FB01DC0141505040BC
:1046700048F001900D920020C9F701C01D924150F1
:104680005040E0F70895FB0151915523A9F0BF0177
:10469000DC014D9145174111E1F759F4CD0101902D
:1046A000002049F04D9140154111C9F3FB01411122
:1046B000EFCF81E090E00197089511E0C0E8D1E0EC
:1046C00000E006C0802FFE010E94F4202196011D0B
:1046D000C138D10780E00807A9F7F894FFCF00049C
:1046E00000001D06800000000000D908550BED0DEC
:1046F000C7082E094A0CC90ABB0C4609300AEF0844
:10470000FE14920C24122B0CE60D360932091F1CE4
:104710001F1E1F1E1F1F1E1F1E1F6403BA02CA0278
:1047200000000000BB03E902160308047903250317
:104730006B03000000002E080108ED0DDE07E1020A
:10474000EE07DF07000000005C09E90CED0D5B09D6
:10475000180B780CA30A500D7115740CB40B910B47
:1047600053094809720900000000310FE902ED0DFC
:10477000E80200000000900F30004D3330346A70C2
:1047800020545030303720566572312E3932002493
:104790004750524D43002C005254432069732073FC
:1047A000746F707065642E005254432069732061E9
:0847B0006273656E742E0000B7
:020000040003F7
:10E000000D9489F10D94B2F10D94B2F10D94B2F129
:10E010000D94B2F10D94B2F10D94B2F10D94B2F1F0
:10E020000D94B2F10D94B2F10D94B2F10D94B2F1E0
:10E030000D94B2F10D94B2F10D94B2F10D94B2F1D0
:10E040000D94B2F10D94B2F10D94B2F10D94B2F1C0
:10E050000D94B2F10D94B2F10D94B2F10D94B2F1B0
:10E060000D94B2F10D94B2F10D94B2F10D94B2F1A0
:10E070000D94B2F10D94B2F10D94B2F10D94B2F190
:10E080000D94B2F10D94B2F10D94B2F10D94B2F180
:10E090000D94B2F10D94B2F10D94B2F10D94B2F170
:10E0A0000D94B2F10D94B2F10D94B2F10D94B2F160
:10E0B0000D94B2F10D94B2F10D94B2F10D94B2F150
:10E0C0000D94B2F10D94B2F10D94B2F10D94B2F140
:10E0D0000D94B2F10D94B2F10D94B2F10D94B2F130
:10E0E0000D94B2F141546D656761323536300041AF
:10E0F000726475696E6F206578706C6F72657220DE
:10E1000073746B3530305632206279204D4C530099
:10E11000426F6F746C6F616465723E004875683F52
:10E1200000436F6D70696C6564206F6E203D200048
:10E130004350552054797065202020203D20005FF9
:10E140005F4156525F415243485F5F3D2000415658
:10E1500052204C696243205665723D20004743437C
:10E160002056657273696F6E203D20004350552024
:10E1700049442020202020203D20004C6F7720663D
:10E18000757365202020203D20004869676820665F
:10E190007573652020203D200045787420667573D6
:10E1A00065202020203D20004C6F636B2066757336
:10E1B000652020203D20004D617220203720323024
:10E1C000313300312E362E3800342E332E350056A2
:10E1D00023202020414444522020206F7020636F70
:10E1E00064652020202020696E73747275637469E1
:10E1F0006F6E2061646472202020496E74657272B3
:10E20000757074006E6F20766563746F7200726A49
:10E210006D702020006A6D70200057686174207056
:10E220006F72743A00506F7274206E6F7420737541
:10E2300070706F72746564004D7573742062652030
:10E2400061206C6574746572002000577269747483
:10E25000696E672045450052656164696E672045B7
:10E26000450045452065727220636E743D00504F35
:10E27000525400303D5A65726F2061646472003FF1
:10E280003D43505520737461747300403D454550C3
:10E29000524F4D207465737400423D426C696E6B41
:10E2A000204C454400453D44756D70204545505215
:10E2B0004F4D00463D44756D7020464C415348001B
:10E2C000483D48656C70004C3D4C69737420492F83
:10E2D0004F20506F72747300513D51756974005234
:10E2E0003D44756D702052414D00563D73686F7707
:10E2F00020696E7465727275707420566563746FF0
:10E30000727300593D506F727420626C696E6B00BD
:10E310002A0011241FBECFEFD1E2DEBFCDBF01E046
:10E320000CBF12E0A0E0B2E0EEE1FDEF03E00BBFB6
:10E3300002C007900D92A030B107D9F712E0A0E01B
:10E34000B2E001C01D92AE30B107E1F70F9460F367
:10E350000D948DFE01E20EBF0FEF0DBF11241FBE05
:10E360000D9460F30D9400F020E030E040ED57E0B4
:10E3700005C0FA013197F1F72F5F3F4F2817390792
:10E38000C0F308959C01260F311DC901A0E0B0E043
:10E390002F5F3F4FABBFFC018791882361F08093D3
:10E3A000C6008091C00086FFFCCF8091C0008064D1
:10E3B0008093C000EACF08958DE08093C6008091DD
:10E3C000C00086FFFCCF8091C00080648093C000B5
:10E3D0008AE08093C6008091C00086FFFCCF8091C8
:10E3E000C00080648093C00008950F94C2F10F9420
:10E3F000DCF10895FC019081992359F09093C600B7
:10E400008091C00086FFFCCF8091C0008064809323
:10E41000C0003196992379F70895282F982F929567
:10E420009F70892F805D8A3308F0895F8093C600D2
:10E430008091C00086FFFCCF8091C00080648093F3
:10E44000C000822F8F70982F905D9A3308F0995FEB
:10E450009093C6008091C00086FFFCCF8091C000E1
:10E4600080648093C00008959C01FB01853691056E
:10E470001CF46330710594F0C90164E670E00F94F8
:10E480002EFE605D7F4F6093C6008091C00086FFC6
:10E49000FCCF8091C00080648093C0002B30310598
:10E4A00014F43297B4F0C90164E670E00F942EFEC4
:10E4B0006AE070E00F942EFE605D7F4F6093C600AF
:10E4C0008091C00086FFFCCF8091C0008064809363
:10E4D000C000C9016AE070E00F942EFEC0968093E0
:10E4E000C6008091C00086FFFCCF8091C000806490
:10E4F0008093C00008951F93182F8EE692EE60E07F
:10E500000F94C2F11093C6008091C00086FFFCCF2B
:10E510008091C00080648093C0000F94DCF11F9153
:10E5200008952F923F924F925F926F927F928F92B7
:10E530009F92AF92BF92CF92DF92EF92FF920F9392
:10E540001F93DF93CF93CDB7DEB762970FB6F894E2
:10E55000DEBF0FBECDBF382E622ECA01DB015C01CB
:10E560006D01772420E2222E2E010894411C511CBB
:10E570008BC081E0A81680E0B80681E0C80680E084
:10E58000D80628F0C601AA27BB270F940DF2BB2797
:10E59000AD2D9C2D8B2D0F940DF28A2D0F940DF225
:10E5A0002092C6008091C00086FFFCCF8091C00001
:10E5B00080648093C0009DE29093C6008091C0006B
:10E5C00086FFFCCF8091C00080648093C0002092C1
:10E5D000C6008091C00086FFFCCF8091C00080649F
:10E5E0008093C00019828601750188249924A1E0D6
:10E5F0003A1651F03A1620F0B2E03B1661F409C029
:10E600000BBFF701779007C0C7010F9477FE782EF4
:10E6100002C0F7017080872D0F940DF22092C60082
:10E620008091C00086FFFCCF8091C0008064809301
:10E63000C000872D8052F401EF70F0708F3520F408
:10E64000E40DF51D708204C0E40DF51D8EE280839B
:10E650000894E11CF11C011D111D0894811C911CE2
:10E6600090E18916910409F0C2CF80E190E0A0E02A
:10E67000B0E0A80EB91ECA1EDB1E198AC2010F9493
:10E68000FAF10F94DCF16A94662009F072CF629679
:10E690000FB6F894DEBF0FBECDBFCF91DF911F91B3
:10E6A0000F91FF90EF90DF90CF90BF90AF909F9031
:10E6B0008F907F906F905F904F903F902F90089534
:10E6C0002F923F924F925F926F927F928F929F9282
:10E6D000AF92BF92CF92DF92EF92FF920F931F9370
:10E6E000DF93CF93CDB7DEB7CD53D1400FB6F894BB
:10E6F000DEBF0FBECDBF01E20EBF0FEF0DBF94B75F
:10E70000F894A89514BE80916000886180936000A1
:10E7100010926000789493FF05C0E0910002F091A0
:10E7200001021995279A2F9A8091C00082608093E8
:10E73000C00080E18093C40088E18093C1000000A4
:10E74000EE24FF24870144E0A42EB12CCC24DD2448
:10E7500024C0C5010197F1F70894E11CF11C011DCB
:10E76000111D21E2E2162EE4F20620E0020720E06D
:10E77000120718F031E0C32ED12CC801B70127ECE5
:10E780003BE140E050E00F9441FE611571058105C9
:10E79000910519F485B1805885B98091C00087FD35
:10E7A00003C0C114D104A9F2A6014F5F5F4FC25E3E
:10E7B000DE4F59834883CE51D140C25EDE4F8881FF
:10E7C0009981CE51D140019711F00D9410FEC05D9A
:10E7D000DE4F19821882C053D14060E0C15DDE4F28
:10E7E0001882CF52D14088249924C35DDE4F19820C
:10E7F0001882CD52D140C05EDE4F188219821A8233
:10E800001B82C052D140CE5CDE4F188219821A8220
:10E810001B82C253D140EE24FF2487010BBFF701B6
:10E8200007911691C45CDE4F19830883CC53D14005
:10E830000D940BFEC25EDE4F28813981CE51D1404E
:10E840002130310509F52091C600C25EDE4F1982E4
:10E850001882CE51D14022C02F5F3F4F4F4F5F4FA4
:10E86000213082E138078AE7480780E0580780F0C6
:10E87000C45CDE4FE881F981CC53D140EF5FFF4F9C
:10E8800019F0EE27FF27099420E030E040E050E047
:10E890008091C00087FFE0CF2091C600C35DDE4FAE
:10E8A00048815981CD52D1404F5F5F4FC35DDE4FEC
:10E8B00059834883CD52D140213209F063C64A3092
:10E8C000510508F05FC60894811C911C53E0851621
:10E8D000910409F059C600E010E018C081E280936D
:10E8E000C6008091C00086FFFCCF8091C00080648C
:10E8F0008093C0002F5F3F4F2931310579F70F9486
:10E90000DCF10F5F1F4F0530110519F020E030E0FA
:10E91000E5CF10920A0210920B0210920C02109294
:10E920000D02109206021092070210920802109235
:10E930000902109202021092030210920402109235
:10E9400005028FEE90EE60E00F94F5F180E191EE1C
:10E9500060E00F94C2F18091C00087FFFCCF9091DE
:10E96000C600903608F09F759032B8F09093C600BC
:10E970008091C00086FFFCCF8091C00080648093AE
:10E98000C000A0E2A093C6008091C00086FFFCCF2B
:10E990008091C00080648093C000983409F4D7C18E
:10E9A0009934B8F4923409F459C1933458F490333B
:10E9B00019F1903308F4E3C59F33A1F1903409F0C5
:10E9C000DEC5BDC0953409F470C1963409F0D7C5D1
:10E9D00098C1923509F42BC2933538F49C3409F46C
:10E9E000F5C1913509F0CBC518C2963509F445C279
:10E9F000993509F0C4C567C483E792EE62E00F94CD
:10EA0000F5F110920602109207021092080210927D
:10EA1000090210920A0210920B0210920C0210923C
:10EA20000D0213C18FE792EE62E00F94F5F18FEEC5
:10EA300090EE60E00F94F5F181E291EE60E00F94CA
:10EA4000C2F187EB91EE60E00F94F5F180E391EE77
:10EA500060E00F94C2F184EE90EE60E00F94F5F167
:10EA60008FE391EE60E00F94C2F186E090E061E008
:10EA700070E00F9434F20F94DCF18DE591EE60E0DC
:10EA80000F94C2F189EC91EE60E00F94F5F18EE401
:10EA900091EE60E00F94C2F183EC91EE60E00F9490
:10EAA000F5F18CE691EE60E00F94C2F18EE10F94E7
:10EAB0000DF288E90F940DF281E00F940DF20F949E
:10EAC000DCF18BE791EE60E00F94C2F119E0E0E039
:10EAD000F0E010935700E4918E2F0F940DF20F94F5
:10EAE000DCF18AE891EE60E00F94C2F1E3E0F0E03F
:10EAF00010935700E4918E2F0F940DF20F94DCF1D8
:10EB000089E991EE60E00F94C2F1E2E0F0E0109349
:10EB10005700E4918E2F0F940DF20F94DCF188EAE8
:10EB200091EE60E00F94C2F1E1E0F0E01093570045
:10EB30001491812F0F940DF20F94DCF107CF8BE825
:10EB400092EE62E00F94F5F18BE492EE60E00F94A8
:10EB5000F5F10F94DCF100E010E019C0C8016F2D51
:10EB60000F947FFEFF2031F489E492EE60E00F9471
:10EB7000C2F10BC0F092C6008091C00086FFFCCFAE
:10EB80008091C00080648093C0000F5F1F4FC80158
:10EB900081519F41A0E0B0E0ABBFFC01F790BAE229
:10EBA000FB1621F0E2E000301E07C1F60F94DCF105
:10EBB0000F94DCF187E592EE60E00F94F5F10F948D
:10EBC000DCF1CC24DD2400E010E01EC0C8010F946D
:10EBD00077FEF82E882331F489E492EE60E00F94FA
:10EBE000C2F10BC08093C6008091C00086FFFCCFAD
:10EBF0008091C00080648093C000FE1419F00894D6
:10EC0000C11CD11C0F5F1F4FC80181519F41A0E063
:10EC1000B0E0ABBFFC01E790FAE2EF1621F022E092
:10EC20000030120799F60F94DCF10F94DCF182E6C4
:10EC300092EE60E00F94C2F1C60161E070E00F94C3
:10EC400034F20F94DCF10F94DCF110920202109276
:10EC50000302109204021092050278CE89E992EE26
:10EC600062E00F94F5F1279A2F9A16C02F9880E052
:10EC700090E0E0EDF7E03197F1F7019684369105E9
:10EC8000C1F72F9A80E090E0E0EDF7E03197F1F7DF
:10EC9000019684369105C1F78091C00087FFE6CFC9
:10ECA0008091C00087FFFCCF64C485EA92EE62E0E9
:10ECB0000F94F5F140910202509103026091040219
:10ECC0007091050281E020E10F9491F2809102029F
:10ECD00090910302A0910402B091050280509F4FD1
:10ECE000AF4FBF4F8093020290930302A0930402A0
:10ECF000B093050280509041A040B04008F426CE69
:10ED0000A4CF83EB92EE62E00F94F5F140910602FE
:10ED100050910702609108027091090280E020E1A1
:10ED20000F9491F28091060290910702A09108023F
:10ED3000B091090280509F4FAF4FBF4F80930602A2
:10ED400090930702A0930802B0930902FFCD80ECD4
:10ED500092EE62E00F94F5F183E792EE60E00F949B
:10ED6000F5F18FE792EE60E00F94F5F18BE892EE0B
:10ED700060E00F94F5F189E992EE60E00F94F5F10F
:10ED800085EA92EE60E00F94F5F183EB92EE60E09D
:10ED90000F94F5F180EC92EE60E00F94F5F187ECC2
:10EDA00092EE60E00F94F5F188ED92EE60E00F9442
:10EDB000F5F18FED92EE60E00F94F5F18AEE92EEB0
:10EDC00060E00F94F5F183E093EEBDCD87EC92EE19
:10EDD00062E00F94F5F181E40F947BF282E40F94EA
:10EDE0007BF283E40F947BF284E40F947BF285E45E
:10EDF0000F947BF286E40F947BF287E40F947BF20E
:10EE000088E40F947BF28AE40F947BF28BE40F94F6
:10EE10007BF28CE40F947BF299CD88ED92EE62E068
:10EE20000F94F5F1772473948824992409C48FED05
:10EE300092EE62E00F94F5F140910A0250910B02BC
:10EE400060910C0270910D0282E020E10F9491F22A
:10EE500080910A0290910B02A0910C02B0910D02D8
:10EE600080509F4FAF4FBF4F80930A0290930B0289
:10EE7000A0930C02B0930D0269CD8AEE92EE62E08F
:10EE80000F94F5F184EE90EE60E00F94F5F18FECC5
:10EE900091EE60E00F94F5F1662477244301CC5D98
:10EEA000DE4F19821882C452D140D401C301B695F5
:10EEB000A79597958795CA5DDE4F88839983AA8326
:10EEC000BB83C652D140CC5DDE4FA881B981C4520C
:10EED000D1401196CC5DDE4FB983A883C452D14096
:10EEE000CD0162E070E00F9434F2B0E2B093C6005E
:10EEF0008091C00086FFFCCF8091C0008064809329
:10EF0000C000EDE2E093C6008091C00086FFFCCF18
:10EF10008091C00080648093C000F0E2F093C6004E
:10EF20008091C00086FFFCCF8091C00080648093F8
:10EF3000C000CA5DDE4FE880F9800A811B81C6529D
:10EF4000D140BB27A12F902F8F2D0F940DF2CA5DBA
:10EF5000DE4F8881C652D1400F940DF2B0E2FB2EF5
:10EF6000F092C6008091C00086FFFCCF8091C00067
:10EF700080648093C0000DE30093C6008091C000C0
:10EF800086FFFCCF8091C00080648093C00010E2B7
:10EF90001093C6008091C00086FFFCCF8091C00016
:10EFA00080648093C0008BBEF3012791C65DDE4F65
:10EFB0002883CA52D140A22EBB24CC24DD2408943D
:10EFC000611C711C811C911C8BBEF3018791282E42
:10EFD0003324442455240894611C711C811C911C09
:10EFE0008BBEF3013791C55DDE4F3883CB52D140E4
:10EFF0000894611C711C811C911C8BBEF30147910C
:10F00000C45DDE4F4883CC52D140ADEFEA2EAFEF66
:10F01000FA2EAFEF0A2FAFEF1A2F6E0C7F1C801E57
:10F02000911E142D032DF22CEE24EA0CFB1C0C1D5A
:10F030001D1D0F940DF220E22093C6008091C000A8
:10F0400086FFFCCF8091C00080648093C000C65DC5
:10F05000DE4F8881CA52D1400F940DF230E23093D6
:10F06000C6008091C00086FFFCCF8091C000806404
:10F070008093C000C45DDE4F8881CC52D1400F9494
:10F080000DF240E24093C6008091C00086FFFCCFA5
:10F090008091C00080648093C000C55DDE4F888190
:10F0A000CB52D1400F940DF250E25093C6008091A4
:10F0B000C00086FFFCCF8091C00080648093C000B8
:10F0C0008FEFE8168FEFF80680E0080780E018075A
:10F0D00031F484E092EE60E00F94C2F1DFC0D80119
:10F0E000C7018070907CA070B0708050904CA040A0
:10F0F000B040D1F52FEF3FE340E050E0E222F322B1
:10F1000004231523CA5DDE4FA880B980CA80DB8046
:10F11000C652D140AE0CBF1CC01ED11EAA0CBB1CD7
:10F12000CC1CDD1C8EE092EE60E00F94C2F1BB2798
:10F13000A12F902F8F2D0F940DF28E2D0F940DF285
:10F1400030E23093C6008091C00086FFFCCF8091F2
:10F15000C00080648093C0004EE34093C60080915D
:10F16000C00086FFFCCF87C08EE09EEFA0E0B0E03D
:10F17000E822F9220A231B239CE0E91694E9F90608
:10F1800090E0090790E0190709F088C0C45DDE4FE0
:10F19000A881CC52D140EA2EFF2400E010E0102FCD
:10F1A0000F2DFE2CEE24C55DDE4FB881CB52D14031
:10F1B000EB0EF11C011D111DD601C501817090706F
:10F1C000A070B070DC0199278827E80EF91E0A1F8D
:10F1D0001B1F20EF30E040E050E0A222B322C42207
:10F1E000D52241E1AA0CBB1CCC1CDD1C4A95D1F7F1
:10F1F000EA0CFB1C0C1D1D1D81E090E0A0E0B0E0BE
:10F20000282239224A225B2235E1220C331C441C7D
:10F21000551C3A95D1F7E20CF31C041D151D57013E
:10F220006801AA0CBB1CCC1CDD1C85E192EE60E0E1
:10F230000F94C2F1C801AA27BB270F940DF2BB2778
:10F24000A12F902F8F2D0F940DF28E2D0F940DF274
:10F2500090E29093C6008091C00086FFFCCF809121
:10F26000C00080648093C000AEE3A093C60080918C
:10F27000C00086FFFCCF8091C00080648093C000F6
:10F28000C601AA27BB270F940DF2BB27AD2D9C2DDD
:10F290008B2D0F940DF28A2D0F940DF20F94DCF14B
:10F2A000CC5DDE4FE881F981C452D140F99709F471
:10F2B0004DCBF4E0EF2EF12C012D112D6E0C7F1CA7
:10F2C000801E911EF2CD83E093EE62E00F94F5F183
:10F2D0008AE192EE60E00F94C2F18091C00087FF56
:10F2E000FCCF1091C6001F751093C6008091C0001E
:10F2F00086FFFCCF8091C00080648093C0000F9493
:10F30000DCF1812F81548A3108F036C1163409F4BA
:10F3100095C0173490F4133409F44EC0143430F40B
